{
  "address": "0xCf7Ed3AccA5a467e9e704C703E8D87F634fB0Fc9",
  "abi": [
    {
      "inputs": [
        {
          "internalType": "address",
          "name": "vrfCoordinatorV2",
          "type": "address"
        },
        {
          "internalType": "uint64",
          "name": "subscriptionId",
          "type": "uint64"
        },
        {
          "internalType": "bytes32",
          "name": "gasLane",
          "type": "bytes32"
        },
        {
          "internalType": "uint32",
          "name": "callbackGasLimit",
          "type": "uint32"
        }
      ],
      "stateMutability": "nonpayable",
      "type": "constructor"
    },
    {
      "inputs": [
        {
          "internalType": "address",
          "name": "have",
          "type": "address"
        },
        {
          "internalType": "address",
          "name": "want",
          "type": "address"
        }
      ],
      "name": "OnlyCoordinatorCanFulfill",
      "type": "error"
    },
    {
      "anonymous": false,
      "inputs": [],
      "name": "RandomNumbersReceived",
      "type": "event"
    },
    {
      "anonymous": false,
      "inputs": [
        {
          "indexed": true,
          "internalType": "address",
          "name": "requestor",
          "type": "address"
        },
        {
          "indexed": true,
          "internalType": "uint256",
          "name": "requestId",
          "type": "uint256"
        }
      ],
      "name": "RandomNumbersRequested",
      "type": "event"
    },
    {
      "inputs": [
        {
          "internalType": "uint256",
          "name": "requestId",
          "type": "uint256"
        }
      ],
      "name": "getRequestIdToNumbers",
      "outputs": [
        {
          "components": [
            {
              "internalType": "uint256",
              "name": "one",
              "type": "uint256"
            },
            {
              "internalType": "uint256",
              "name": "two",
              "type": "uint256"
            },
            {
              "internalType": "uint256",
              "name": "three",
              "type": "uint256"
            },
            {
              "internalType": "uint256",
              "name": "four",
              "type": "uint256"
            },
            {
              "internalType": "uint256",
              "name": "five",
              "type": "uint256"
            },
            {
              "internalType": "uint256",
              "name": "six",
              "type": "uint256"
            }
          ],
          "internalType": "struct RandomNumbers.TheNumbers",
          "name": "",
          "type": "tuple"
        }
      ],
      "stateMutability": "view",
      "type": "function"
    },
    {
      "inputs": [
        {
          "internalType": "uint256[]",
          "name": "numbers",
          "type": "uint256[]"
        }
      ],
      "name": "getTheNumbers",
      "outputs": [
        {
          "components": [
            {
              "internalType": "uint256",
              "name": "one",
              "type": "uint256"
            },
            {
              "internalType": "uint256",
              "name": "two",
              "type": "uint256"
            },
            {
              "internalType": "uint256",
              "name": "three",
              "type": "uint256"
            },
            {
              "internalType": "uint256",
              "name": "four",
              "type": "uint256"
            },
            {
              "internalType": "uint256",
              "name": "five",
              "type": "uint256"
            },
            {
              "internalType": "uint256",
              "name": "six",
              "type": "uint256"
            }
          ],
          "internalType": "struct RandomNumbers.TheNumbers",
          "name": "",
          "type": "tuple"
        }
      ],
      "stateMutability": "pure",
      "type": "function"
    },
    {
      "inputs": [
        {
          "internalType": "uint256",
          "name": "requestId",
          "type": "uint256"
        },
        {
          "internalType": "uint256[]",
          "name": "randomWords",
          "type": "uint256[]"
        }
      ],
      "name": "rawFulfillRandomWords",
      "outputs": [],
      "stateMutability": "nonpayable",
      "type": "function"
    },
    {
      "inputs": [],
      "name": "requestRandomNumber",
      "outputs": [
        {
          "internalType": "uint256",
          "name": "requestId",
          "type": "uint256"
        }
      ],
      "stateMutability": "nonpayable",
      "type": "function"
    }
  ],
  "transactionHash": "0x95fd97aeb4fb178e7ce3def769d398247d1f3f7bd49c680297d01ab878eb5483",
  "args": [
    "0x5FbDB2315678afecb367f032d93F642f64180aa3",
    "1",
    "0xd89b2bf150e3b9e13446986e571fb9cab24b13cea0a43ea20a6049a85cc807cc",
    "500000"
  ],
  "numDeployments": 1,
  "solcInputHash": "a7d4d3a2acb1eb1be209b2d22e428fbf",
  "bytecode": "0x6101206040523480156200001257600080fd5b5060405162000def38038062000def83398181016040528101906200003891906200014d565b838073ffffffffffffffffffffffffffffffffffffffff1660808173ffffffffffffffffffffffffffffffffffffffff1660601b81525050508373ffffffffffffffffffffffffffffffffffffffff1660a08173ffffffffffffffffffffffffffffffffffffffff1660601b815250508267ffffffffffffffff1660c08167ffffffffffffffff1660c01b815250508160e081815250508063ffffffff166101008163ffffffff1660e01b81525050505050506200028e565b600081519050620001028162000226565b92915050565b600081519050620001198162000240565b92915050565b60008151905062000130816200025a565b92915050565b600081519050620001478162000274565b92915050565b600080600080608085870312156200016a576200016962000221565b5b60006200017a87828801620000f1565b94505060206200018d8782880162000136565b9350506040620001a08782880162000108565b9250506060620001b3878288016200011f565b91505092959194509250565b6000620001cc82620001dd565b9050919050565b6000819050919050565b600073ffffffffffffffffffffffffffffffffffffffff82169050919050565b600063ffffffff82169050919050565b600067ffffffffffffffff82169050919050565b600080fd5b6200023181620001bf565b81146200023d57600080fd5b50565b6200024b81620001d3565b81146200025757600080fd5b50565b6200026581620001fd565b81146200027157600080fd5b50565b6200027f816200020d565b81146200028b57600080fd5b50565b60805160601c60a05160601c60c05160c01c60e0516101005160e01c610b0a620002e5600039600061022f015260006101eb0152600061020c015260006101af01526000818160ed01526101410152610b0a6000f3fe608060405234801561001057600080fd5b506004361061004c5760003560e01c80631fe543e3146100515780638678a7b21461006d578063aae2c7db1461008b578063f0a9d5fa146100bb575b600080fd5b61006b600480360381019061006691906106ee565b6100eb565b005b6100756101ab565b60405161008291906108c5565b60405180910390f35b6100a560048036038101906100a09190610694565b61030b565b6040516100b291906108aa565b60405180910390f35b6100d560048036038101906100d0919061064b565b610373565b6040516100e291906108aa565b60405180910390f35b7f000000000000000000000000000000000000000000000000000000000000000073ffffffffffffffffffffffffffffffffffffffff163373ffffffffffffffffffffffffffffffffffffffff161461019d57337f00000000000000000000000000000000000000000000000000000000000000006040517f1cf993f400000000000000000000000000000000000000000000000000000000815260040161019492919061082e565b60405180910390fd5b6101a782826104bd565b5050565b60007f000000000000000000000000000000000000000000000000000000000000000073ffffffffffffffffffffffffffffffffffffffff16635d3b1d307f00000000000000000000000000000000000000000000000000000000000000007f000000000000000000000000000000000000000000000000000000000000000060037f000000000000000000000000000000000000000000000000000000000000000060066040518663ffffffff1660e01b8152600401610270959493929190610857565b602060405180830381600087803b15801561028a57600080fd5b505af115801561029e573d6000803e3d6000fd5b505050506040513d601f19601f820116820180604052508101906102c291906106c1565b9050803373ffffffffffffffffffffffffffffffffffffffff167f3acf2512e26ea6e05ffdc7218a54ae46c5fda8a69ad166e6185156a1ce35377c60405160405180910390a390565b61031361054d565b6000808381526020019081526020016000206040518060c001604052908160008201548152602001600182015481526020016002820154815260200160038201548152602001600482015481526020016005820154815250509050919050565b61037b61054d565b600060318360008151811061039357610392610a3a565b5b60200260200101516103a591906109da565b905060006031846001815181106103bf576103be610a3a565b5b60200260200101516103d191906109da565b905060006031856002815181106103eb576103ea610a3a565b5b60200260200101516103fd91906109da565b9050600060318660038151811061041757610416610a3a565b5b602002602001015161042991906109da565b9050600060318760048151811061044357610442610a3a565b5b602002602001015161045591906109da565b9050600060318860058151811061046f5761046e610a3a565b5b602002602001015161048191906109da565b90506040518060c00160405280878152602001868152602001858152602001848152602001838152602001828152509650505050505050919050565b60006104c882610373565b905080600080858152602001908152602001600020600082015181600001556020820151816001015560408201518160020155606082015181600301556080820151816004015560a082015181600501559050507f9e6ecca2b509879118920232fb65759fcd01f878a2f445c27d12967177556dfb60405160405180910390a1505050565b6040518060c001604052806000815260200160008152602001600081526020016000815260200160008152602001600081525090565b600061059661059184610905565b6108e0565b905080838252602082019050828560208602820111156105b9576105b8610a9d565b5b60005b858110156105e957816105cf8882610621565b8452602084019350602083019250506001810190506105bc565b5050509392505050565b600082601f83011261060857610607610a98565b5b8135610618848260208601610583565b91505092915050565b60008135905061063081610abd565b92915050565b60008151905061064581610abd565b92915050565b60006020828403121561066157610660610aa7565b5b600082013567ffffffffffffffff81111561067f5761067e610aa2565b5b61068b848285016105f3565b91505092915050565b6000602082840312156106aa576106a9610aa7565b5b60006106b884828501610621565b91505092915050565b6000602082840312156106d7576106d6610aa7565b5b60006106e584828501610636565b91505092915050565b6000806040838503121561070557610704610aa7565b5b600061071385828601610621565b925050602083013567ffffffffffffffff81111561073457610733610aa2565b5b610740858286016105f3565b9150509250929050565b61075381610931565b82525050565b61076281610943565b82525050565b60c08201600082015161077e60008501826107f2565b50602082015161079160208501826107f2565b5060408201516107a460408501826107f2565b5060608201516107b760608501826107f2565b5060808201516107ca60808501826107f2565b5060a08201516107dd60a08501826107f2565b50505050565b6107ec8161094d565b82525050565b6107fb8161097b565b82525050565b61080a8161097b565b82525050565b61081981610985565b82525050565b61082881610995565b82525050565b6000604082019050610843600083018561074a565b610850602083018461074a565b9392505050565b600060a08201905061086c6000830188610759565b610879602083018761081f565b61088660408301866107e3565b6108936060830185610810565b6108a06080830184610810565b9695505050505050565b600060c0820190506108bf6000830184610768565b92915050565b60006020820190506108da6000830184610801565b92915050565b60006108ea6108fb565b90506108f682826109a9565b919050565b6000604051905090565b600067ffffffffffffffff8211156109205761091f610a69565b5b602082029050602081019050919050565b600061093c8261095b565b9050919050565b6000819050919050565b600061ffff82169050919050565b600073ffffffffffffffffffffffffffffffffffffffff82169050919050565b6000819050919050565b600063ffffffff82169050919050565b600067ffffffffffffffff82169050919050565b6109b282610aac565b810181811067ffffffffffffffff821117156109d1576109d0610a69565b5b80604052505050565b60006109e58261097b565b91506109f08361097b565b925082610a00576109ff610a0b565b5b828206905092915050565b7f4e487b7100000000000000000000000000000000000000000000000000000000600052601260045260246000fd5b7f4e487b7100000000000000000000000000000000000000000000000000000000600052603260045260246000fd5b7f4e487b7100000000000000000000000000000000000000000000000000000000600052604160045260246000fd5b600080fd5b600080fd5b600080fd5b600080fd5b6000601f19601f8301169050919050565b610ac68161097b565b8114610ad157600080fd5b5056fea2646970667358221220e400b5be49ca041ec23f8d71b4c0875a4bafad1daef6f57479d0c6b81ac345da64736f6c63430008070033",
  "devdoc": {
    "kind": "dev",
    "methods": {},
    "version": 1
  },
  "userdoc": {
    "kind": "user",
    "methods": {},
    "version": 1
  },
  "storageLayout": {
    "storage": [
      {
        "astId": 859,
        "contract": "contracts/RandomNumbers.sol:RandomNumbers",
        "label": "s_requestIdToNumbers",
        "offset": 0,
        "slot": "0",
        "type": "t_mapping(t_uint256,t_struct(TheNumbers)839_storage)"
      }
    ],
    "types": {
      "t_mapping(t_uint256,t_struct(TheNumbers)839_storage)": {
        "encoding": "mapping",
        "key": "t_uint256",
        "label": "mapping(uint256 => struct RandomNumbers.TheNumbers)",
        "numberOfBytes": "32",
        "value": "t_struct(TheNumbers)839_storage"
      },
      "t_struct(TheNumbers)839_storage": {
        "encoding": "inplace",
        "label": "struct RandomNumbers.TheNumbers",
        "members": [
          {
            "astId": 828,
            "contract": "contracts/RandomNumbers.sol:RandomNumbers",
            "label": "one",
            "offset": 0,
            "slot": "0",
            "type": "t_uint256"
          },
          {
            "astId": 830,
            "contract": "contracts/RandomNumbers.sol:RandomNumbers",
            "label": "two",
            "offset": 0,
            "slot": "1",
            "type": "t_uint256"
          },
          {
            "astId": 832,
            "contract": "contracts/RandomNumbers.sol:RandomNumbers",
            "label": "three",
            "offset": 0,
            "slot": "2",
            "type": "t_uint256"
          },
          {
            "astId": 834,
            "contract": "contracts/RandomNumbers.sol:RandomNumbers",
            "label": "four",
            "offset": 0,
            "slot": "3",
            "type": "t_uint256"
          },
          {
            "astId": 836,
            "contract": "contracts/RandomNumbers.sol:RandomNumbers",
            "label": "five",
            "offset": 0,
            "slot": "4",
            "type": "t_uint256"
          },
          {
            "astId": 838,
            "contract": "contracts/RandomNumbers.sol:RandomNumbers",
            "label": "six",
            "offset": 0,
            "slot": "5",
            "type": "t_uint256"
          }
        ],
        "numberOfBytes": "192"
      },
      "t_uint256": {
        "encoding": "inplace",
        "label": "uint256",
        "numberOfBytes": "32"
      }
    }
  }
}